:020000040800F2
:10000000B026012041830108497A01084B7A010892
:100010004D7A01084F7A0108517A0108000000006A
:10002000000000000000000000000000DD1B0108CF
:10003000537A010800000000851B0108A1F00008A8
:10004000398401083D840108418401084584010880
:10005000498401084D840108518401085584010830
:10006000598401085D8401086184010865840108E0
:10007000698401086D840108718401087584010890
:10008000798401087D840108818401088584010840
:10009000898401088D8401089184010895840108F0
:1000A000998401089D840108A1840108A5840108A0
:1000B000A9840108AD840108557A0108B1840108BA
:1000C000B5840108B9840108BD840108C184010810
:1000D000C5840108C9840108CD840108D1840108C0
:1000E000D5840108D9840108DD840108E184010870
:1000F000E5840108E9840108ED840108F184010820
:100100005B7A0108F5840108F9840108FD8401087F
:10011000018501080585010809850108617A010842
:100120000D8501081185010815850108198501084B
:100130001D850108218501082585010829850108FB
:100140002D850108318501083585010839850108AB
:100150003D8501084185010845850108498501085B
:100160004D8501085185010855850108598501080B
:100170005D850108618501086585010800000000B2
:10018000698501086D85010871850108758501087B
:10019000798501087D85010881850108858501082B
:1001A000677A0108697A0108717A01080000000085
:1001B000000000000000000000000000000000003F
:1001C000000000000000000000000000000000002F
:1001D000000000000000000000000000000000001F
:1001E000000000000000000000000000000000000F
:100490000000000000000000000000040000000454
:1004A000000000080000000C0000000C0000000C20
:1004B0000000000C0000000C0000000C0000000C0C
:1004C0000000000C0000000C0000000C0000000CFC
:1004D0000000000C0000000C0000000C0000000CEC
:1004E0000000000C0000000C0000000C0000000CDC
:1004F0000000000C0000000C0000000C0000000CCC
:100500000000000C0000000C0000000C0000000CBB
:100510000000000C0000000C0000000C0000000CAB
:100520000000000C0000000C0000000C0000000C9B
:100530000000000C0000000C0000000C0000000C8B
:100540000000000800000008000000040000000493
:10055000000000000000000000000000000000009B
:10056000000000000000000000000000000000008B
:10057000000000000000000000000000000000007B
:1005800000000000000000040000000C0000001447
:100590000000001C000000200000002400000024D7
:1005A00000000024000000240000002400000024BB
:1005B00000000024000000240000002400000024AB
:1005C000000000240000002400000024000000249B
:1005D000000000240000002400000024000000248B
:1005E000000000240000002400000024000000247B
:1005F000000000240000002400000024000000246B
:10060000000000240000002400000024000000245A
:10061000000000240000002400000024000000244A
:10062000000000240000002400000024000000243A
:10063000000000200000001C000000140000000C5E
:1006400000000004000000000000000000000000A6
:10065000000000000000000000000000000000009A
:10066000000000000000000000000000000000008A
:100670000000000440341818B89C4882C8AC50CF21
:10068000D0AC48FBC89818FFC09410FFC89418FF5E
:10069000C09410FFC09410FFC09410FFC09410FFCE
:1006A000C09410FFC09010FFC09010FFC09010FFCA
:1006B000C09010FFB89010FFB88C08FFC08C10FFDE
:1006C000B88C10FFB88C08FFB88C08FFB88C10FFEE
:1006D000B88808FFB88C08FFB88810FFB88808FFF2
:1006E000B88808FFB08808FFB88408FFB08808FF02
:1006F000B08408FFB08408FFB08408FFB08400FF16
:10070000B08408FFB08000FFB08008FFB08000FF19
:10071000B08400FFB08000FFA87C00FF906C08F759
:10072000806000D77050008E101000340000002050
:1007300000000010000000080000000000000000A1
:1007400000000000000000000000000000000000A9
:100750000000000000000000000000000000000495
:100760008874382CD0B050D7D8B450FFC89818FF30
:10077000C09418FFC09810FFC09418FFC09410FFD9
:10078000C09410FFC09418FFC09410FFC09010FFD9
:10079000C09010FFC09010FFC09010FFC09010FFDD
:1007A000C09010FFB89010FFC08C10FFB88C08FFED
:1007B000B89008FFB88C10FFB88C08FFB88C08FF01
:1007C000B88808FFB88C08FFB88808FFB88808FF09
:1007D000B08808FFB88808FFB08808FFB08408FF19
:1007E000B88408FFB08408FFB08408FFB08408FF15
:1007F000B08400FFB08000FFB08408FFB08000FF2D
:10080000B08000FFA88008FFB08000FFB08000FF2C
:10081000A88000FF906800FF806000DF3024004D5A
:100820000000002400000010000000040000000090
:1008300000000000000000000000000000000000B8
:10084000000000000000000000000000483C2014F0
:10085000D0B050D7D0B458FFC89818FFC09818FF30
:10086000C09410FFC89410FFC09410FFC09818FFE8
:10087000C09410FFC09410FFC09410FFC09410FFEC
:10088000C09010FFC09010FFC09410FFC09010FFE8
:10089000B89010FFB89010FFC08C08FFB88C10FF04
:1008A000B89008FFC08C10FFB88C08FFB88C10FF00
:1008B000B88C08FFB88808FFB88808FFB88808FF18
:1008C000B08808FFB08808FFB88408FFB08408FF2C
:1008D000B08408FFB88808FFB08400FFB08400FF30
:1008E000B08408FFB08008FFB08400FFB08000FF34
:1008F000B08008FFB08008FFA88000FFA88000FF3C
:10090000B08008FFA87C00FF906800FF806000DFD7
:1009100010080041000000200000000C000000044E
:1009200000000000000000000000000000000000C7
:10093000000000000000000000000004C0A4507986
:10094000D8B458FFD0AC48FFC09818FFC89810FF23
:10095000C89418FFC89818FFC09410FFC89410FFDF
:10096000C89410FFC09410FFC09410FFC09410FFF3
:10097000C09410FFC09010FFC09010FFC09010FFF7
:10098000C09010FFB89010FFC08C08FFB88C10FF0B
:10099000B88C10FFC08C08FFB88C10FFB88C08FF13
:1009A000B88808FFB88C10FFB88808FFB88808FF1F
:1009B000B08808FFB88808FFB88808FFB08808FF2B
:1009C000B08408FFB08408FFB08408FFB08400FF43
:1009D000B08408FFB08000FFB08008FFB08008FF3F
:1009E000B08400FFA88000FFB08000FFB08000FF4F
:1009F000A88000FFB08000FF906C00FF906800FFAF
:100A00006848009A00000030000000140000000454
:100A100000000000000000000000000000000000D6
:100A2000000000000000000000000008D0B050CF1F
:100A3000D8B458FFC89C18FFC89810FFC89818FF72
:100A4000C09410FFC09810FFC09418FFC09410FF0E
:100A5000C09410FFC09418FFC09410FFC09010FF06
:100A6000C09010FFC09010FFC09010FFC09010FF0A
:100A7000B89010FFC09010FFC08C08FFB88C10FF1A
:100A8000B89008FFB88C10FFB88C08FFB88C08FF2E
:100A9000B88808FFB88808FFB88808FFB88808FF3A
:100AA000B08808FFB88808FFB08408FFB08408FF4A
:100AB000B08408FFB08808FFB08408FFB08408FF46
:100AC000B08408FFB08000FFB08400FFB08000FF5A
:100AD000B08000FFA88008FFB08000FFB08008FF52
:100AE000A88000FFA87C00FFA87C00FF886808FFA2
:100AF000806000DB0000003C0000001C00000008DB
:100B000000000000000000000000000000000000E5
:100B1000000000000000000000000008D0B450F306
:100B2000D8B458FFC89810FFC09810FFC89818FF95
:100B3000C09410FFC09810FFC89418FFC09410FF15
:100B4000C09410FFC09418FFC09410FFC09410FF11
:100B5000C09010FFC09010FFC09410FFC09010FF15
:100B6000C09010FFB89010FFB88C08FFB88C10FF31
:100B7000C09008FFC08C08FFB88C08FFB88C10FF2D
:100B8000B88808FFB88C10FFB88808FFB88808FF3D
:100B9000B08808FFB08808FFB88808FFB08408FF55
:100BA000B88408FFB88408FFB08400FFB08400FF59
:100BB000B08408FFB08000FFB08408FFB08000FF61
:100BC000B08008FFB08000FFB08000FFA88000FF69
:100BD000A88008FFB08000FFB07C00FF906800FF95
:100BE000886400F7000000450000002000000008B5
:100BF00000000000000000000000000000000000F5
:100C000000000000000000000000000CD8B458FFF5
:100C1000D8B458FFC89818FFC09818FFC09818FF9C
:100C2000C89418FFC89810FFC09410FFC09418FF14
:100C3000C89410FFC09410FFC09410FFC09410FF20
:100C4000C09410FFC09010FFC09010FFC09010FF24
:100C5000B89010FFB89010FFC08C08FFB88C10FF40
:100C6000B88C10FFB88C08FFB88C10FFB88C08FF48
:100C7000B88808FFB88C08FFB88808FFB88808FF54
:100C8000B08808FFB88808FFB88408FFB08808FF5C
:100C9000B08808FFB08408FFB08408FFB08400FF6C
:100CA000B08408FFB08008FFB08000FFB08008FF6C
:100CB000B08000FFA88008FFB08000FFA88000FF80
:100CC000B08000FFB08000FFA87C00FF886800FFB4
:100CD000906800FF00000045000000240000000CA8
:100CE0000000000000000000000000000000000004
:100CF00000000000000000000000000CD8B458FF05
:100D0000D0B458FFC09810FFC89810FFC89810FFC3
:100D1000C09410FFC89810FFC09418FFC09410FF33
:100D2000C09410FFC09410FFC09410FFC09010FF3B
:100D3000C09010FFC09010FFC09010FFC09010FF37
:100D4000B89010FFC09010FFC08C08FFB88C10FF47
:100D5000B89008FFB88C10FFB88C08FFB88C10FF53
:100D6000B88808FFB88C08FFB88808FFB88808FF63
:100D7000B08808FFB88808FFB08408FFB08408FF77
:100D8000B08408FFB08808FFB08400FFB08408FF7B
:100D9000B08400FFB08000FFB08408FFB08000FF87
:100DA000B08000FFA88000FFB08000FFB08008FF87
:100DB000A88000FFA88000FFA87C00FF906800FFCB
:100DC000886800FF00000045000000240000000CBF
:100DD0000000000000000000000000000000000013
:100DE00000000000000000000000000CD8B458FF14
:100DF000D8B458FFC09810FFC89810FFC89818FFC3
:100E0000C09410FFC09418FFC09418FFC89410FF3E
:100E1000C09410FFC09418FFC09410FFC09410FF3E
:100E2000C09010FFC09010FFC09410FFC09010FF42
:100E3000C09010FFB89010FFB88C08FFB88C10FF5E
:100E4000C09008FFC08C08FFB88C10FFB88C08FF5A
:100E5000B88808FFB88C10FFB88808FFB88808FF6A
:100E6000B08808FFB08808FFB88808FFB08408FF82
:100E7000B88408FFB88408FFB08408FFB08408FF76
:100E8000B08408FFB08000FFB08400FFB08000FF96
:100E9000B08408FFB08000FFB08000FFA88000FF92
:100EA000A88008FFB07C00FFA87C00FF906808FFC6
:100EB000906800FF00000049000000240000000CC2
:100EC0000000000000000000000000000000000022
:100ED00000000000000000000000000CD8B458FF23
:100EE000D8B450FFC89818FFC89818FFC09818FFCA
:100EF000C09418FFC89810FFC09410FFC09410FF52
:100F0000C89418FFC09410FFC09410FFC09410FF45
:100F1000C09410FFC09010FFC09010FFC09010FF51
:100F2000B89010FFC09010FFC08C08FFB88C10FF65
:100F3000B88C10FFB88C08FFB88C08FFB88C08FF7D
:100F4000B88808FFB88C08FFB88808FFB88808FF81
:100F5000B88808FFB08808FFB88408FFB08808FF89
:100F6000B08408FFB08408FFB08400FFB08400FFA5
:100F7000B08408FFB08008FFB08008FFB08000FF99
:100F8000B08008FFA88008FFB08000FFA88008FF9D
:100F9000B08000FFB08000FFA87C00FF906800FFD9
:100FA000886800FF00000045000000240000000CDD
:100FB0000000000000000000000000000000000031
:100FC00000000000000000000000000CD8B458FF32
:100FD000D0B458FFC09810FFC89818FFC89810FFE9
:100FE000C89810FFC89810FFC09410FFC09418FF55
:100FF000C09410FFC09410FFC09410FFC09010FF69
:10100000C09010FFC09010FFC09410FFC09010FF60
:10101000B89010FFB89010FFC08C08FFB88C10FF7C
:10102000B89008FFB88C10FFB88C10FFB88C08FF80
:10103000B88808FFB88C10FFB88808FFB88808FF88
:10104000B08808FFB88808FFB08408FFB08408FFA4
:10105000B08408FFB08808FFB08408FFB08408FFA0
:10106000B08400FFB08000FFB08408FFB08000FFB4
:10107000B08000FFA88000FFB08000FFB08000FFBC
:10108000A88000FFA88000FFA87C00FF906800FFF8
:10109000886800FF00000045000000240000000CEC
:1010A0000000000000000000000000000000000040
:1010B00000000000000000000000000CD8B458FF41
:1010C000D8B458FFC09810FFC89810FFC09810FF00
:1010D000C09410FFC09418FFC09418FFC89810FF68
:1010E000C09410FFC09410FFC09410FFC09418FF6C
:1010F000C09010FFC09010FFC09010FFC09010FF74
:10110000C09010FFC09010FFB88C08FFB88C10FF83
:10111000C09008FFC08C08FFB88C10FFB88C10FF7F
:10112000B88808FFB88C08FFB88808FFB88808FF9F
:10113000B08808FFB08808FFB88408FFB08808FFAF
:10114000B88408FFB88408FFB08400FFB08408FFAB
:10115000B08408FFB08000FFB08400FFB08000FFC3
:10116000B08008FFB08000FFB08000FFA88000FFC3
:10117000A88000FFB08000FFB07C00FF906808FFEF
:10118000886800FF00000049000000240000000CF7
:10119000000000000000000000000000000000004F
:1011A00000000000000000000000000CD8B458FF50
:1011B000D8B450FFC89818FFC89818FFC09818FFF7
:1011C000C09418FFC89810FFC09410FFC09418FF77
:1011D000C89410FFC09410FFC09410FFC09010FF7F
:1011E000C09410FFC09010FFC09010FFC09010FF7F
:1011F000B89010FFB89010FFC08C08FFB88C10FF9B
:10120000B88C10FFB88C08FFB88C08FFB88C08FFAA
:10121000B88808FFB88C10FFB88808FFB88808FFA6
:10122000B08808FFB88808FFB88408FFB08808FFB6
:10123000B08408FFB08408FFB08400FFB08400FFD2
:10124000B08408FFB08000FFB08408FFB08000FFCA
:10125000B08008FFA88008FFB08000FFA88008FFCA
:10126000B08008FFB08000FFA87C00FF886800FF06
:10127000906800FF00000045000000240000000C02
:10128000000000000000000000000000000000005E
:1012900000000000000000000000000CD8B458FF5F
:1012A000D0B458FFC09810FFC89818FFC89810FF16
:1012B000C89818FFC89410FFC09410FFC09410FF86
:1012C000C09410FFC09418FFC09410FFC09410FF8A
:1012D000C09010FFC09010FFC09410FFC09010FF8E
:1012E000B89010FFC09010FFC08C08FFB88C10FFA2
:1012F000B89008FFB88C10FFB88C08FFB88C08FFB6
:10130000B88808FFB88C08FFB88808FFB88808FFBD
:10131000B08808FFB88808FFB08408FFB08808FFCD
:10132000B08408FFB08408FFB08408FFB08408FFD1
:10133000B08400FFB08008FFB08408FFB08000FFD9
:10134000B08000FFA88000FFB08000FFB08000FFE9
:10135000A88000FFA87C00FFA87C00FF906800FF29
:10136000886800FF00000045000000240000000C19
:10137000000000000000000000000000000000006D
:1013800000000000000000000000000CD8B458FF6E
:10139000D8B458FFC09810FFC89810FFC09810FF2D
:1013A000C09410FFC89818FFC09410FFC09818FF91
:1013B000C89410FFC09410FFC09410FFC09010FF9D
:1013C000C09410FFC09010FFC09010FFC09010FF9D
:1013D000C09010FFB89010FFB88C08FFB88C10FFB9
:1013E000B89008FFC08C08FFB88C10FFB88C10FFB5
:1013F000B88808FFB88C10FFB88808FFB88808FFC5
:10140000B88808FFB08808FFB08408FFB08808FFDC
:10141000B88408FFB88408FFB08400FFB08408FFD8
:10142000B08408FFB08000FFB08400FFB08000FFF0
:10143000B08008FFB08000FFB08000FFA88000FFF0
:10144000A88000FFB08000FFA87C00FF906808FF24
:10145000906800FF00000049000000240000000C1C
:10146000000000000000000000000000000000007C
:1014700000000000000000000000000CD8B458FF7D
:10148000D8B450FFC89818FFC89818FFC09818FF24
:10149000C09418FFC09410FFC09410FFC89418FFA8
:1014A000C09410FFC09410FFC09410FFC09410FFB0
:1014B000C09010FFC09010FFC09010FFC09010FFB0
:1014C000B89010FFC09010FFC08C08FFB88C10FFC0
:1014D000C08C10FFB88C10FFB88C08FFB88C08FFC8
:1014E000B88808FFB88C08FFB88808FFB88808FFDC
:1014F000B08808FFB88808FFB88408FFB08808FFE4
:10150000B08408FFB08408FFB08400FFB08400FFFF
:10151000B08408FFB08000FFB08408FFB08008FFEF
:10152000B08000FFA88008FFB08000FFA88008FFFF
:10153000B08008FFB08000FFA87C00FF906800FF2B
:10154000886800FF00000045000000240000000C37
:10155000000000000000000000000000000000008B
:1015600000000000000000000000000CD8B458FF8C
:10157000D0B458FFC09810FFC89818FFC89810FF43
:10158000C89810FFC89810FFC09418FFC09410FFAF
:10159000C09410FFC09410FFC09418FFC09410FFB7
:1015A000C09010FFC09010FFC09410FFC09010FFBB
:1015B000B89010FFB89010FFC08C08FFB88C10FFD7
:1015C000B89008FFB88C08FFB88C08FFB88C08FFEB
:1015D000B88808FFB88C10FFB88808FFB88808FFE3
:1015E000B08808FFB08808FFB88408FFB08808FFFB
:1015F000B88408FFB08408FFB08408FFB08408FFF7
:10160000B08408FFB08000FFB08408FFB08000FF06
:10161000B08000FFA88008FFB08000FFB08000FF0E
:10162000A88000FFA88000FFA87C00FF906800FF52
:10163000886800FF00000045000000240000000C46
:10164000000000000000000000000000000000009A
:1016500000000000000000000000000CD8B458FF9B
:10166000D8B458FFC09810FFC89810FFC09810FF5A
:10167000C09418FFC89810FFC09418FFC09418FFBA
:10168000C89410FFC09410FFC09410FFC09010FFCA
:10169000C09410FFC09010FFC09010FFC09010FFCA
:1016A000C09010FFC09010FFB88C08FFB88C10FFDE
:1016B000B89008FFC08C10FFB88C10FFB88C10FFDA
:1016C000B88808FFB88C10FFB88808FFB88808FFF2
:1016D000B08808FFB88808FFB08408FFB08808FF0A
:1016E000B08408FFB08408FFB08400FFB08408FF16
:1016F000B08408FFB08000FFB08400FFB08000FF1E
:10170000B08000FFB08000FFB08000FFA88000FF25
:10171000A88000FFB08000FFB07C00FF906808FF49
:10172000886800FF00000049000000240000000C51
:1017300000000000000000000000000000000000A9
:1017400000000000000000000000000CD8B458FFAA
:10175000D8B450FFC89818FFC89818FFC09818FF51
:10176000C09418FFC89410FFC09410FFC09410FFDD
:10177000C09410FFC09410FFC09410FFC09410FFDD
:10178000C09010FFC09010FFC09010FFC09010FFDD
:10179000B89010FFC09010FFB88C08FFB88C10FFF5
:1017A000C08C10FFB88C08FFB88C08FFB88C08FFFD
:1017B000B88808FFB88C08FFB88808FFB88808FF09
:1017C000B88808FFB08808FFB88408FFB08808FF11
:1017D000B08408FFB88408FFB08400FFB08400FF25
:1017E000B08400FFB08008FFB08408FFB08000FF25
:1017F000B08008FFA88008FFB08000FFA88000FF2D
:10180000B08008FFB07C00FFA87C00FF886800FF64
:10181000906800FF00000045000000240000000C5C
:1018200000000000000000000000000000000000B8
:1018300000000000000000000000000CD8B458FFB9
:10184000D0B458FFC09810FFC89818FFC89810FF70
:10185000C89810FFC09810FFC09418FFC89410FFDC
:10186000C09410FFC09418FFC09410FFC09410FFE4
:10187000C09010FFC09010FFC09410FFC09010FFE8
:10188000B89010FFB89010FFC08C10FFB88C08FF04
:10189000B89008FFB88C10FFB88C08FFB88C08FF10
:1018A000B88808FFB88C10FFB88808FFB88808FF10
:1018B000B08808FFB88808FFB08408FFB08808FF28
:1018C000B88408FFB08408FFB08408FFB08408FF24
:1018D000B08408FFB08000FFB08408FFB08000FF34
:1018E000B08000FFA88008FFB08000FFB08000FF3C
:1018F000A88000FFA88000FFA87C00FF906800FF80
:10190000886800FF00000045000000240000000C73
:1019100000000000000000000000000000000000C7
:1019200000000000000000000000000CD8B458FFC8
:10193000D8B458FFC09810FFC89810FFC09810FF87
:10194000C09418FFC89410FFC09418FFC09818FFE7
:10195000C89410FFC09410FFC09410FFC09010FFF7
:10196000C09410FFC09010FFC09010FFC09010FFF7
:10197000C09010FFC09010FFB88C08FFC08C10FF03
:10198000B89008FFC08C10FFB88C08FFB88C10FF0F
:10199000B88808FFB88C08FFB88808FFB88808FF27
:1019A000B08808FFB08808FFB88408FFB08808FF37
:1019B000B08408FFB08408FFB08400FFB08408FF43
:1019C000B08408FFB08000FFB08400FFB08000FF4B
:1019D000B08008FFB08000FFB08000FFA88000FF4B
:1019E000A88008FFB08000FFA87C00FF906808FF77
:1019F000906800FF00000049000000240000000C77
:101A000000000000000000000000000000000000D6
:101A100000000000000000000000000CD8B458FFD7
:101A2000D8B450FFC89818FFC89818FFC09818FF7E
:101A3000C09410FFC89818FFC09410FFC09410FF06
:101A4000C09410FFC09410FFC09410FFC09410FF0A
:101A5000C09010FFC09010FFC09010FFC09010FF0A
:101A6000B89010FFB89010FFC08C08FFB88C10FF22
:101A7000B88C10FFB88C08FFB88C08FFB88C10FF2A
:101A8000B88808FFB88C10FFB88808FFB88808FF2E
:101A9000B08808FFB88808FFB88408FFB08808FF3E
:101AA000B08408FFB88408FFB08408FFB08400FF4A
:101AB000B08400FFB08008FFB08408FFB08000FF52
:101AC000B08008FFA88000FFA88000FFB08008FF5A
:101AD000B08000FFB08000FFA87C00FF906800FF8E
:101AE000886800FF00000045000000240000000C92
:101AF00000000000000000000000000000000000E6
:101B000000000000000000000000000CD8B458FFE6
:101B1000D0B458FFC09810FFC89818FFC89810FF9D
:101B2000C89818FFC89410FFC09410FFC09410FF0D
:101B3000C89410FFC09418FFC09410FFC09010FF0D
:101B4000C09010FFC09010FFC09410FFC09010FF15
:101B5000B89010FFC09010FFB88C08FFB88C10FF31
:101B6000B89008FFB88C10FFB88C08FFB88C08FF3D
:101B7000B88808FFB88C08FFB88808FFB88808FF45
:101B8000B08808FFB88808FFB08408FFB08808FF55
:101B9000B88408FFB08408FFB08400FFB08408FF59
:101BA000B08408FFB08000FFB08400FFB08000FF69
:101BB000B08000FFA88008FFB08000FFB08000FF69
:101BC000A88000FFA88000FFA87C00FF906800FFAD
:101BD000886800FF00000045000000240000000CA1
:101BE00000000000000000000000000000000000F5
:101BF00000000000000000000000000CD8B458FFF6
:101C0000D8B458FFC09810FFC89810FFC09810FFB4
:101C1000C09410FFC09810FFC09418FFC89818FF18
:101C2000C09410FFC09410FFC09410FFC09410FF28
:101C3000C09410FFC09010FFC09010FFC09010FF24
:101C4000C09010FFB89010FFC08C08FFB88C10FF38
:101C5000C09008FFC08C08FFB88C10FFB88C10FF34
:101C6000B88808FFB88C08FFB88808FFB88808FF54
:101C7000B88808FFB08808FFB08408FFB08808FF64
:101C8000B08408FFB08408FFB08408FFB08400FF70
:101C9000B08408FFB08000FFB08408FFB08000FF70
:101CA000B08008FFB08000FFB08000FFA88008FF70
:101CB000A88000FFB08000FFA87C08FF906800FFAC
:101CC000906800FF00000049000000240000000CA4
:101CD0000000000000000000000000000000000004
:101CE00000000000000000000000000CD8B458FF05
:101CF000D8B450FFC89818FFC89818FFC09818FFAC
:101D0000C09418FFC89410FFC09410FFC09410FF37
:101D1000C09410FFC09418FFC09410FFC09010FF33
:101D2000C09010FFC09010FFC09410FFC09010FF33
:101D3000B89010FFC09010FFC08C08FFB88C10FF47
:101D4000B88C10FFB88C08FFB88C08FFB88C08FF5F
:101D5000B88808FFB88C10FFB88808FFB88808FF5B
:101D6000B08808FFB88808FFB88408FFB08808FF6B
:101D7000B88408FFB88408FFB08400FFB08408FF6F
:101D8000B08408FFB08400FFB08008FFB08008FF77
:101D9000B08000FFA88000FFB08000FFB08000FF8F
:101DA000A88000FFB08000FFA87C00FF906800FFC3
:101DB000886800FF00000045000000240000000CBF
:101DC0000000000000000000000000000000000013
:101DD00000000000000000000000000CD8B458FF14
:101DE000D0B458FFC09810FFC89818FFC89810FFCB
:101DF000C89818FFC89810FFC09418FFC09418FF27
:101E0000C89410FFC09410FFC09410FFC09410FF3E
:101E1000C09010FFC09010FFC09010FFC09010FF46
:101E2000C09010FFB89010FFB88C08FFB88C10FF5E
:101E3000B89008FFB88C10FFB88C10FFB88C08FF62
:101E4000B88808FFB88C08FFB88808FFB88808FF72
:101E5000B08808FFB08808FFB88408FFB08808FF82
:101E6000B08408FFB08408FFB08408FFB08400FF8E
:101E7000B08408FFB08000FFB08400FFB08000FF96
:101E8000B08000FFA88008FFA88000FFB08008FF96
:101E9000B08000FFA87C00FFA87C00FF906800FFD6
:101EA000886800FF00000045000000240000000CCE
:101EB0000000000000000000000000000000000022
:101EC00000000000000000000000000CD8B458FF23
:101ED000D8B458FFC09810FFC89810FFC09810FFE2
:101EE000C09410FFC89818FFC09410FFC09410FF52
:101EF000C09410FFC09410FFC09410FFC09418FF4E
:101F0000C09410FFC09010FFC09010FFC09010FF51
:101F1000B89010FFB89010FFC08C08FFB88C10FF6D
:101F2000C09008FFC08C08FFB88C08FFB88C10FF69
:101F3000B88808FFB88C10FFB88808FFB88808FF79
:101F4000B08808FFB88808FFB08408FFB08808FF91
:101F5000B08408FFB08408FFB08400FFB08408FF9D
:101F6000B08408FFB08000FFB08008FFB08000FFA1
:101F7000B08400FFB08008FFB08000FFA88000FFA1
:101F8000A88008FFB08000FFA87C00FF906800FFD9
:101F9000906800FF00000049000000240000000CD1
:101FA0000000000000000000000000000000000031
:101FB00000000000000000000000000CD8B458FF32
:101FC000D8B450FFC89818FFC89818FFC09818FFD9
:101FD000C09418FFC09410FFC09410FFC89410FF65
:101FE000C09410FFC09418FFC09410FFC09010FF61
:101FF000C09010FFC09010FFC09410FFC09010FF61
:10200000B89010FFC09010FFC08C08FFB88C10FF74
:10201000B88C10FFB88C10FFB88C08FFB88C08FF84
:10202000B88808FFB88C08FFB88808FFB88808FF90
:10203000B08808FFB88808FFB88808FFB08408FF98
:10204000B08408FFB88408FFB08408FFB08400FFA4
:10205000B08408FFB08000FFB08408FFB08008FFA4
:10206000B08000FFA88000FFB08000FFB08000FFBC
:10207000A88000FFA88000FFB07C00FF906808FFE8
:10208000886800FF00000045000000240000000CEC
:102090000000000000000000000000000000000040
:1020A00000000000000000000000000CD8B458FF41
:1020B000D0B458FFC09810FFC89818FFC89810FFF8
:1020C000C89810FFC89810FFC09418FFC09418FF5C
:1020D000C89410FFC09410FFC09410FFC09410FF6C
:1020E000C09010FFC09010FFC09010FFC09010FF74
:1020F000C09010FFB89010FFC08C08FFB88C10FF84
:10210000B89008FFB88C08FFB88C10FFB88C08FF97
:10211000B88808FFB88C10FFB88808FFB88808FF97
:10212000B88808FFB08808FFB08408FFB88808FFA7
:10213000B08408FFB08408FFB08400FFB08408FFBB
:10214000B08408FFB08000FFB08400FFB08000FFC3
:10215000B08008FFA88008FFB08000FFB08008FFB3
:10216000A88000FFB07C00FFA87C00FF886800FF0B
:10217000886800FF00000045000000240000000CFB
:10218000000000000000000000000000000000004F
:1021900000000000000000000000000CD8B458FF50
:1021A000D8B458FFC09810FFC89810FFC09810FF0F
:1021B000C09418FFC89410FFC09418FFC09810FF77
:1021C000C09410FFC09410FFC09410FFC09410FF83
:1021D000C09410FFC09010FFC09010FFC09010FF7F
:1021E000B89010FFC09010FFB88C08FFB88C10FF9B
:1021F000B89008FFC08C08FFB88C08FFB88C10FF9F
:10220000B88808FFB88C08FFB88808FFB88808FFAE
:10221000B08808FFB88808FFB08408FFB08408FFC2
:10222000B88408FFB08808FFB08408FFB88400FFB6
:10223000B08408FFB08000FFB08408FFB08000FFCA
:10224000B08000FFB08000FFA88000FFA88000FFE2
:10225000B08008FFB08000FFA87C00FF906800FFFE
:10226000906800FF00000049000000240000000CFE
:10227000000000000000000000000000000000005E
:1022800000000000000000000000000CD8B458FF5F
:10229000D8B450FFC89818FFC89818FFC09818FF06
:1022A000C09418FFC89810FFC09410FFC09410FF8E
:1022B000C89410FFC09418FFC09410FFC09010FF86
:1022C000C09010FFC09010FFC09410FFC09010FF8E
:1022D000B89010FFB89010FFC08C08FFB88C10FFAA
:1022E000B88C10FFB88C10FFB88C10FFB88C08FFAA
:1022F000B88808FFB88C10FFB88808FFB88808FFB6
:10230000B08808FFB08808FFB88408FFB08808FFCD
:10231000B08408FFB08408FFB08400FFB08408FFD9
:10232000B08408FFB08000FFB08408FFB08000FFD9
:10233000B08000FFA88008FFB08000FFB08000FFE1
:10234000A88000FFA88000FFA87C00FF906808FF1D
:10235000886800FF00000045000000240000000C19
:10236000000000000000000000000000000000006D
:1023700000000000000000000000000CD8B458FF6E
:10238000D0B458FFC09810FFC89818FFC89810FF25
:10239000C89810FFC09410FFC09418FFC89418FF8D
:1023A000C09410FFC09410FFC09410FFC09410FFA1
:1023B000C09010FFC09010FFC09010FFC09010FFA1
:1023C000C09010FFC09010FFC08C08FFB88C10FFA9
:1023D000C09008FFC08C10FFB88C08FFB88C08FFB5
:1023E000B88808FFB88C08FFB88808FFB88808FFCD
:1023F000B08808FFB88808FFB88408FFB08808FFD5
:10240000B08408FFB88408FFB08408FFB08400FFE0
:10241000B08408FFB08000FFB08400FFB08008FFE8
:10242000B08008FFA88000FFB08000FFB08008FFE8
:10243000A88000FFB08000FFA87C00FF906800FF2C
:10244000886800FF00000045000000240000000C28
:10245000000000000000000000000000000000007C
:1024600000000000000000000000000CD8B458FF7D
:10247000D8B458FFC09810FFC89810FFC09810FF3C
:10248000C09418FFC89810FFC09418FFC09810FFA0
:10249000C09410FFC09410FFC09410FFC09010FFB4
:1024A000C09410FFC09010FFC09010FFC09010FFAC
:1024B000B89010FFB89010FFB88C10FFB88C08FFD0
:1024C000B89008FFB88C08FFB88C08FFB88C08FFDC
:1024D000B88808FFB88C10FFB88808FFB88808FFD4
:1024E000B08808FFB88808FFB08408FFB08808FFEC
:1024F000B08408FFB08408FFB08400FFB08408FFF8
:10250000B08408FFB08000FFB08408FFB08000FFF7
:10251000B08000FFB08000FFB08000FFA88008FFFF
:10252000A88000FFB07C00FFA87C00FF906800FF3F
:10253000906800FF00000049000000240000000C2B
:10254000000000000000000000000000000000008B
:1025500000000000000000000000000CD8B458FF8C
:10256000D8B450FFC89818FFC89818FFC09818FF33
:10257000C09410FFC89418FFC09410FFC09410FFBF
:10258000C89410FFC09418FFC09410FFC09410FFAF
:10259000C09010FFC09010FFC09410FFC09010FFBB
:1025A000C09010FFB89010FFC08C08FFB88C10FFCF
:1025B000B88C10FFB88C10FFB88C08FFB88C10FFD7
:1025C000B88810FFB88C08FFB88808FFB88808FFE3
:1025D000B08808FFB88808FFB88408FFB08808FFF3
:1025E000B08408FFB08408FFB08408FFB08400FF07
:1025F000B08408FFB08000FFB08408FFB08000FF07
:10260000B08000FFA88008FFA88000FFB08000FF16
:10261000B08000FFA88000FFA87C00FF906808FF42
:10262000886800FF00000045000000240000000C46
:10263000000000000000000000000000000000009A
:1026400000000000000000000000000CD8B458FF9B
:10265000D0B458FFC09810FFC89818FFC89810FF52
:10266000C89818FFC89810FFC09410FFC09418FFB6
:10267000C09410FFC09410FFC09410FFC09410FFCE
:10268000C09010FFC09010FFC09010FFC09010FFCE
:10269000B89010FFC09010FFC08C08FFB88C10FFDE
:1026A000C09008FFC08C10FFB88C08FFB88C08FFE2
:1026B000B88808FFB88C08FFB88808FFB88808FFFA
:1026C000B08808FFB88808FFB08408FFB08808FF0A
:1026D000B88408FFB88408FFB08408FFB08400FF06
:1026E000B08408FFB08000FFB08400FFB08008FF16
:1026F000B08008FFA88000FFB08000FFB08008FF16
:10270000A88000FFB08000FFA87C00FF906800FF59
:10271000886800FF00000045000000240000000C55
:1027200000000000000000000000000000000000A9
:1027300000000000000000000000000CD8B458FFAA
:10274000D8B458FFC09810FFC89810FFC09810FF69
:10275000C09410FFC09810FFC09418FFC89410FFD9
:10276000C09410FFC09418FFC09410FFC09010FFD9
:10277000C09410FFC09010FFC09010FFC09010FFD9
:10278000B89010FFB89010FFB88C08FFB88C10FFFD
:10279000B89008FFB88C08FFB88C08FFB88C10FF01
:1027A000B88808FFB88C08FFB88808FFB88808FF09
:1027B000B08808FFB08808FFB88408FFB08808FF19
:1027C000B08408FFB08408FFB08400FFB08408FF25
:1027D000B08408FFB08000FFB08408FFB08000FF25
:1027E000B08000FFB08000FFB08000FFA88000FF35
:1027F000A88008FFB08000FFA87C00FF906800FF61
:10280000906800FF00000049000000240000000C58
:1028100000000000000000000000000000000000B8
:1028200000000000000000000000000CD8B458FFB9
:10283000D8B450FFC89818FFC89818FFC09818FF60
:10284000C09418FFC89410FFC09410FFC09418FFE4
:10285000C89410FFC09410FFC09410FFC09410FFE4
:10286000C09010FFC09010FFC09410FFC09010FFE8
:10287000C09010FFC09010FFC08C08FFB88C10FFF4
:10288000B88C10FFB88C08FFB88C10FFB88C08FF0C
:10289000B88808FFB88C10FFB88808FFB88808FF10
:1028A000B08808FFB88808FFB88408FFB08808FF20
:1028B000B08408FFB08408FFB08408FFB08400FF34
:1028C000B08408FFB08000FFB08408FFB08000FF34
:1028D000B08000FFA88008FFB08000FFB08008FF34
:1028E000A88000FFA87C00FFA87C00FF906808FF7C
:1028F000886800FF00000045000000240000000C74
:1029000000000000000000000000000000000000C7
:1029100000000000000000000000000CD8B458FFC8
:10292000D0B458FFC09810FFC89818FFC89810FF7F
:10293000C89818FFC89810FFC09418FFC09410FFE3
:10294000C09410FFC09410FFC09410FFC09410FFFB
:10295000C09010FFC09010FFC09010FFC09010FFFB
:10296000B89010FFB89010FFC08C08FFB88C10FF13
:10297000C09008FFC08C10FFB88C08FFB88C10FF07
:10298000B88808FFB88C08FFB88808FFB88808FF27
:10299000B08808FFB88808FFB08408FFB08808FF37
:1029A000B88408FFB08408FFB08400FFB08408FF3B
:1029B000B08408FFB08000FFB08400FFB08008FF43
:1029C000B08008FFA88000FFA88000FFB08000FF53
:1029D000B08000FFB08000FFA87C00FF906800FF7F
:1029E000886800FF00000045000000240000000C83
:1029F00000000000000000000000000000000000D7
:102A000000000000000000000000000CD8B458FFD7
:102A1000D8B458FFC09810FFC89810FFC09810FF96
:102A2000C09410FFC89418FFC09410FFC09810FF06
:102A3000C89410FFC09418FFC09410FFC09010FFFE
:102A4000C09410FFC09010FFC09010FFC09010FF06
:102A5000B89010FFC09010FFB88C10FFB88C08FF22
:102A6000B89008FFB88C10FFB88C08FFB88C08FF2E
:102A7000B88808FFB88C08FFB88808FFB88808FF36
:102A8000B88808FFB08808FFB08408FFB88808FF3E
:102A9000B08408FFB08408FFB08408FFB88400FF4A
:102AA000B08408FFB08000FFB08408FFB08000FF52
:102AB000B08000FFB08000FFB08000FFA88008FF5A
:102AC000A88000FFB08000FFA87C00FF906800FF96
:102AD000906800FF00000049000000240000000C86
:102AE00000000000000000000000000000000000E6
:102AF00000000000000000000000000CD8B458FFE7
:102B0000D8B450FFC89818FFC89818FFC09818FF8D
:102B1000C09418FFC09810FFC09410FFC89418FF0D
:102B2000C09410FFC09410FFC09410FFC09418FF11
:102B3000C09010FFC09010FFC09410FFC09010FF15
:102B4000C09010FFB89010FFC08C08FFB88C10FF29
:102B5000B88C10FFB88C08FFB88C08FFB88C08FF41
:102B6000B88808FFB88C10FFB88808FFB88808FF3D
:102B7000B08808FFB88808FFB88408FFB08808FF4D
:102B8000B08408FFB08408FFB08400FFB08408FF61
:102B9000B08408FFB08000FFB08408FFB08000FF61
:102BA000B08000FFA88008FFB08000FFB08008FF61
:102BB000A88000FFA88000FFA87C08FF906800FFA5
:102BC000886800FF00000045000000240000000CA1
:102BD00000000000000000000000000000000000F5
:102BE00000000000000000000000000CD8B458FFF6
:102BF000D0B458FFC09810FFC89818FFC89810FFAD
:102C0000C89810FFC89410FFC09418FFC09410FF1C
:102C1000C09410FFC09410FFC09410FFC09010FF2C
:102C2000C09010FFC09010FFC09010FFC09010FF28
:102C3000B89010FFC09008FFB88C08FFB88C10FF48
:102C4000C09008FFC08C10FFB88C10FFB88C10FF2C
:102C5000B88808FFB88C10FFB88808FFB88808FF4C
:102C6000B08808FFB08808FFB08408FFB08808FF6C
:102C7000B08408FFB88408FFB08408FFB08400FF68
:102C8000B08408FFB08000FFB08400FFB08008FF70
:102C9000B08008FFA88000FFA88000FFB08000FF80
:102CA000A88000FFB08000FFA87C00FF906800FFB4
:102CB000886800FF00000045000000240000000CB0
:102CC0000000000000000000000000000000000004
:102CD00000000000000000000000000CD8B458FF05
:102CE000D8B458FFC09810FFC89810FFC09810FFC4
:102CF000C09418FFC89810FFC09418FFC09810FF28
:102D0000C89410FFC09418FFC09410FFC09410FF27
:102D1000C09410FFC09010FFC09410FFC09010FF2F
:102D2000C09010FFB89010FFC08C10FFB88C10FF3F
:102D3000B89008FFB88C08FFB88C08FFB88C08FF63
:102D4000B88808FFB88C08FFB88808FFB88808FF63
:102D5000B08808FFB88808FFB88408FFB08808FF6B
:102D6000B08408FFB88408FFB08400FFB08400FF7F
:102D7000B08408FFB08000FFB08408FFB08000FF7F
:102D8000B08000FFB08000FFB08000FFB08008FF7F
:102D9000A88000FFB08000FFB07C00FF906800FFBB
:102DA000886800FF00000049000000240000000CBB
:102DB0000000000000000000000000000000000013
:102DC00000000000000000000000000CD8B458FF14
:102DD000D8B450FFC89818FFC89818FFC09818FFBB
:102DE000C09418FFC89410FFC09410FFC09418FF3F
:102DF000C09410FFC09410FFC09410FFC09010FF4B
:102E0000C09010FFC09010FFC09010FFC09010FF46
:102E1000B89010FFB89010FFC08C08FFB88C10FF5E
:102E2000B88C08FFB88C10FFB88C08FFB88C08FF6E
:102E3000B88808FFB88C10FFB88808FFB88808FF6A
:102E4000B08808FFB88808FFB88408FFB08808FF7A
:102E5000B08408FFB08408FFB08408FFB08408FF86
:102E6000B08408FFB08000FFB08408FFB08000FF8E
:102E7000B08000FFA88008FFB08000FFB08008FF8E
:102E8000A88000FFA88000FFA87C00FF886800FFE2
:102E9000906800FF00000045000000240000000CC6
:102EA0000000000000000000000000000000000022
:102EB00000000000000000000000000CD8B458FF23
:102EC000D0B458FFC09810FFC89818FFC89810FFDA
:102ED000C89810FFC09810FFC09418FFC89410FF46
:102EE000C09410FFC09410FFC09410FFC09418FF4E
:102EF000C09010FFC09010FFC09410FFC09010FF52
:102F0000B89010FFC09010FFB88C08FFB88C10FF6D
:102F1000C09008FFC08C10FFB88C10FFB88C10FF59
:102F2000B88808FFB88C08FFB88808FFB88808FF81
:102F3000B88808FFB08808FFB08408FFB08808FF91
:102F4000B88408FFB08408FFB08408FFB08400FF95
:102F5000B08408FFB08000FFB08400FFB08008FF9D
:102F6000B08008FFA88000FFA88000FFA88000FFB5
:102F7000B08000FFB08000FFA87C08FF906800FFD1
:102F8000886800FF00000045000000240000000CDD
:102F90000000000000000000000000000000000031
:102FA00000000000000000000000000CD8B458FF32
:102FB000D8B458FFC09810FFC89810FFC09810FFF1
:102FC000C09418FFC89810FFC09418FFC09410FF59
:102FD000C89410FFC09418FFC09410FFC09410FF55
:102FE000C09410FFC09010FFC09010FFC09010FF61
:102FF000C09010FFB89010FFC08C08FFB88C10FF75
:10300000B89008FFB88C08FFB88C08FFB88C08FF90
:10301000B88808FFB88C10FFB88808FFB88808FF88
:10302000B08808FFB08808FFB88408FFB08808FFA0
:10303000B08408FFB88408FFB08400FFB08400FFAC
:10304000B08408FFB08400FFB08008FFB08000FFAC
:10305000B08000FFB08000FFB08000FFB08008FFAC
:10306000A88000FFB08000FFA87C00FF906800FFF0
:10307000906800FF00000049000000240000000CE0
:103080000000000000000000000000000000000040
:1030900000000000000000000000000CD8B458FF41
:1030A000D8B450FFC89818FFC89818FFC09818FFE8
:1030B000C09410FFC89418FFC09410FFC09410FF74
:1030C000C09410FFC09410FFC09410FFC09010FF78
:1030D000C09010FFC09010FFC09010FFC09010FF74
:1030E000B89010FFC09010FFC08C10FFB88C08FF84
:1030F000B88C10FFB88C10FFB88C08FFB88C08FF94
:10310000B88808FFB88C08FFB88808FFB88808FF9F
:10311000B08808FFB88808FFB88408FFB08408FFAB
:10312000B08408FFB08408FFB08408FFB08408FFB3
:10313000B08408FFB08000FFB08408FFB08000FFBB
:10314000B08000FFA88008FFB08000FFB08008FFBB
:10315000A88000FFA88000FFA87C00FF906800FF07
:10316000886800FF00000045000000240000000CFB
:10317000000000000000000000000000000000004F
:1031800000000000000000000000000CD8B458FF50
:10319000D0B458FFC09810FFC89818FFC89810FF07
:1031A000C89818FFC89810FFC09410FFC09418FF6B
:1031B000C89410FFC09410FFC09410FFC09410FF7B
:1031C000C09010FFC09010FFC09410FFC09010FF7F
:1031D000B89010FFB89010FFB88C08FFB88C10FFA3
:1031E000C09008FFC08C10FFB88C08FFB88C10FF8F
:1031F000B88808FFB88C08FFB88808FFB88808FFAF
:10320000B08808FFB08808FFB88808FFB08808FFBA
:10321000B08408FFB08408FFB08408FFB08400FFCA
:10322000B08408FFB08000FFB08400FFB08008FFCA
:10323000B08008FFA88000FFB08000FFA88000FFDA
:10324000A88000FFB08000FFA87C08FF886800FF0E
:10325000906800FF00000045000000240000000C02
:10326000000000000000000000000000000000005E
:1032700000000000000000000000000CD8B458FF5F
:10328000D8B458FFC09810FFC89810FFC09810FF1E
:10329000C09410FFC09410FFC09418FFC89818FF86
:1032A000C09410FFC09418FFC09410FFC09410FF8A
:1032B000C09410FFC09010FFC09010FFC09010FF8E
:1032C000C09010FFC09010FFC08C08FFB88C10FF9A
:1032D000B89008FFB88C08FFB88C08FFB88C10FFB6
:1032E000B88808FFB88C10FFB88808FFB88808FFB6
:1032F000B08808FFB88808FFB88408FFB08408FFCA
:10330000B88408FFB88808FFB08400FFB08400FFCD
:10331000B08408FFB08000FFB08008FFB08000FFDD
:10332000B08000FFB08000FFB08000FFA88008FFE1
:10333000B08000FFB08000FFA87C00FF906800FF15
:10334000906800FF00000049000000240000000C0D
:10335000000000000000000000000000000000006D
:1033600000000000000000000000000CD8B458FF6E
:10337000D8B450FFC89818FFC89818FFC09818FF15
:10338000C09418FFC89810FFC09410FFC09410FF9D
:10339000C09410FFC09410FFC09410FFC09010FFA5
:1033A000C09010FFC09010FFC09010FFC09010FFA1
:1033B000B89010FFB89010FFC08C08FFB88C10FFB9
:1033C000B88C10FFB88C10FFB88C08FFB88C08FFC1
:1033D000B88808FFB88C08FFB88808FFB88808FFCD
:1033E000B08808FFB88808FFB08408FFB08808FFDD
:1033F000B08408FFB08408FFB08408FFB08408FFE1
:10340000B08408FFB08000FFB08408FFB08000FFE8
:10341000B08000FFA88008FFB08000FFB08000FFF0
:10342000A88000FFB08000FFA87C00FF906800FF2C
:10343000886800FF00000045000000240000000C28
:10344000000000000000000000000000000000007C
:1034500000000000000000000000000CD8B458FF7D
:10346000D0B458FFC09810FFC89818FFC89810FF34
:10347000C89818FFC89410FFC09418FFC09410FF9C
:10348000C89410FFC09410FFC09410FFC09410FFA8
:10349000C09010FFC09010FFC09410FFC09010FFAC
:1034A000C09010FFB89010FFB88C10FFB88C08FFC8
:1034B000C09008FFC08C08FFB88C10FFB88C10FFBC
:1034C000B88808FFB88C08FFB88808FFB88808FFDC
:1034D000B88808FFB08808FFB08408FFB08808FFEC
:1034E000B08408FFB08408FFB08408FFB08400FFF8
:1034F000B08408FFB08400FFB08400FFB08008FFF4
:10350000B08008FFA88000FFB08000FFA88008FFFF
:10351000A88000FFB08000FFA87C08FF886800FF3B
:10352000906800FF00000045000000240000000C2F
:10353000000000000000000000000000000000008B
:1035400000000000000000000000000CD8B458FF8C
:10355000D8B458FFC09810FFC89810FFC09810FF4B
:10356000C09410FFC89818FFC09410FFC09818FFAF
:10357000C09410FFC09418FFC09410FFC09010FFBB
:10358000C09410FFC09010FFC09010FFC09010FFBB
:10359000B89010FFC09010FFC08C08FFB88C10FFCF
:1035A000B89008FFB88C10FFB88C08FFB88C08FFE3
:1035B000B88808FFB88C10FFB88808FFB88808FFE3
:1035C000B08808FFB88808FFB88808FFB08408FFF3
:1035D000B88408FFB88408FFB08400FFB08400FFFF
:1035E000B08408FFB08000FFB08008FFB08000FF0B
:1035F000B08000FFB08000FFB08000FFA88008FF0F
:10360000B08000FFB07C00FFA87C00FF906800FF46
:10361000906800FF00000049000000240000000C3A
:10362000000000000000000000000000000000009A
:1036300000000000000000000000000CD8B458FF9B
:10364000D8B450FFC89818FFC89818FFC09818FF42
:10365000C09418FFC09410FFC09410FFC89410FFCE
:10366000C09410FFC09410FFC09410FFC09410FFCE
:10367000C09010FFC09010FFC09010FFC09010FFCE
:10368000B89010FFB89010FFC08C08FFB88C10FFE6
:10369000B88C10FFB88C10FFB88C08FFB88C08FFEE
:1036A000B88808FFB88C08FFB88808FFB88808FFFA
:1036B000B08808FFB08808FFB88408FFB08808FF0A
:1036C000B08408FFB08408FFB08408FFB08408FF0E
:1036D000B08408FFB08000FFB08408FFB08000FF16
:1036E000B08400FFA88008FFB08000FFB08000FF1A
:1036F000A88000FFA88000FFA87C00FF906800FF62
:10370000886800FF00000045000000240000000C55
:1037100000000000000000000000000000000000A9
:1037200000000000000000000000000CD8B458FFAA
:10373000D0B458FFC09810FFC89818FFC89810FF61
:10374000C89810FFC89810FFC09418FFC09410FFCD
:10375000C89410FFC09418FFC09410FFC09410FFCD
:10376000C09010FFC09010FFC09410FFC09010FFD9
:10377000C09010FFC09010FFB88C10FFB88C08FFED
:10378000C09008FFC08C08FFB88C08FFB88C10FFF1
:10379000B88C08FFB88810FFB88808FFB88808FF01
:1037A000B08808FFB88808FFB08408FFB08808FF19
:1037B000B08408FFB08408FFB08408FFB08400FF25
:1037C000B08408FFB08400FFB08000FFB08008FF25
:1037D000B08008FFB08000FFA88000FFA88008FF2D
:1037E000A88000FFB08000FFA87C00FF906808FF61
:1037F000906800FF00000045000000240000000C5D
:1038000000000000000000000000000000000000B8
:1038100000000000000000000000000CD8B458FFB9
:10382000D8B458FFC09810FFC89810FFC09810FF78
:10383000C09418FFC89810FFC09418FFC09418FFD8
:10384000C09410FFC09410FFC09410FFC09010FFF0
:10385000C09410FFC09010FFC09010FFC09010FFE8
:10386000B89010FFB89010FFC08C08FFB88C10FF04
:10387000B89008FFB88C10FFB88C08FFB88C10FF08
:10388000B88808FFB88C08FFB88808FFB88808FF18
:10389000B08808FFB88808FFB88808FFB08408FF20
:1038A000B08408FFB88408FFB08400FFB08400FF34
:1038B000B08408FFB08000FFB08408FFB08000FF34
:1038C000B08000FFA88000FFB08000FFB08000FF44
:1038D000B08008FFB07C00FFA87C00FF906800FF6C
:1038E000886800FF00000049000000240000000C70
:1038F00000000000000000000000000000000000C8
:1039000000000000000000000000000CD8B458FFC8
:10391000D8B450FFC89818FFC89818FFC09818FF6F
:10392000C09418FFC89410FFC09410FFC09410FFFB
:10393000C89410FFC09410FFC09410FFC09410FFF3
:10394000C09010FFC09010FFC09010FFC09010FFFB
:10395000B89010FFC09010FFB88C08FFB88C10FF13
:10396000B88C10FFB88C10FFB88C08FFB88C08FF1B
:10397000B88808FFB88808FFB88808FFB88808FF2B
:10398000B88808FFB08808FFB08408FFB88808FF2F
:10399000B08408FFB08408FFB08408FFB08408FF3B
:1039A000B08408FFB08000FFB08008FFB08000FF47
:1039B000B08400FFA88008FFB08000FFB08008FF3F
:1039C000A88000FFA88000FFA87C00FF906800FF8F
:1039D000886800FF00000045000000240000000C83
:1039E00000000000000000000000000000000000D7
:1039F00000000000000000000000000CD8B458FFD8
:103A0000D0B458FFC09810FFC89818FFC89810FF8E
:103A1000C89810FFC09810FFC09418FFC89410FFFA
:103A2000C09410FFC09418FFC09410FFC09410FF02
:103A3000C09010FFC09010FFC09410FFC09010FF06
:103A4000C09010FFB89010FFC08C10FFB88C08FF1A
:103A5000C09008FFC08C08FFB88C08FFB88C10FF1E
:103A6000B88808FFB88C10FFB88808FFB88808FF2E
:103A7000B08808FFB88808FFB08808FFB08408FF46
:103A8000B88408FFB08808FFB08408FFB08400FF46
:103A9000B08408FFB08000FFB08400FFB08008FF52
:103AA000B08008FFB08000FFB08000FFA88000FF5A
:103AB000A88000FFB08000FFA87C00FF906808FF8E
:103AC000906800FF00000045000000240000000C8A
:103AD00000000000000000000000000000000000E6
:103AE00000000000000000000000000CD8B458FFE7
:103AF000D8B458FFC09810FFC89810FFC09810FFA6
:103B0000C09418FFC89410FFC09418FFC09818FF05
:103B1000C09410FFC09410FFC09410FFC09010FF1D
:103B2000C09410FFC09010FFC09010FFC09010FF15
:103B3000B89010FFC09010FFC08C08FFB88C10FF29
:103B4000B89008FFB88C10FFB88C08FFB88C10FF35
:103B5000B88808FFB88C08FFB88808FFB88808FF45
:103B6000B08808FFB08808FFB88408FFB08408FF59
:103B7000B08408FFB88408FFB08400FFB08400FF61
:103B8000B08408FFB08000FFB08408FFB08000FF61
:103B9000B08000FFA88000FFA88000FFB08008FF71
:103BA000A88000FFB08000FFA87C00FF906800FFA5
:103BB000886800FF00000049000000240000000C9D
:103BC00000000000000000000000000000000000F5
:103BD00000000000000000000000000CD8B458FFF6
:103BE000D8B450FFC89818FFC89818FFC09818FF9D
:103BF000C09410FFC89818FFC09410FFC09410FF25
:103C0000C89410FFC09410FFC09410FFC09410FF20
:103C1000C09010FFC09010FFC09010FFC09010FF28
:103C2000C09010FFB89010FFB88C08FFB88C10FF40
:103C3000B88C10FFB88C10FFB88C08FFB88C08FF48
:103C4000B88808FFB88C08FFB88808FFB88808FF54
:103C5000B08808FFB88808FFB88408FFB08808FF5C
:103C6000B08408FFB08808FFB08408FFB08408FF64
:103C7000B08408FFB08000FFB08408FFB08000FF70
:103C8000B08000FFA88008FFB08000FFB08008FF70
:103C9000A88000FFB08000FFA87C00FF906800FFB4
:103CA000886800FF00000045000000240000000CB0
:103CB0000000000000000000000000000000000004
:103CC00000000000000000000000000CD8B458FF05
:103CD000D0B458FFC09810FFC89818FFC89810FFBC
:103CE000C89818FFC89410FFC09410FFC09410FF2C
:103CF000C09410FFC09418FFC09410FFC09010FF34
:103D0000C09010FFC09010FFC09410FFC09010FF33
:103D1000B89010FFB89010FFC08C08FFB88C10FF4F
:103D2000C09008FFC08C08FFB88C08FFB88C10FF4B
:103D3000B88808FFB88C10FFB88808FFB88808FF5B
:103D4000B08808FFB88808FFB08808FFB08408FF73
:103D5000B88408FFB08408FFB08408FFB08400FF77
:103D6000B08408FFB08000FFB08000FFB08008FF83
:103D7000B08008FFB08000FFB08000FFB08000FF7F
:103D8000A88000FFB08000FFA87C08FF886800FFC3
:103D9000906800FF00000045000000240000000CB7
:103DA0000000000000000000000000000000000013
:103DB00000000000000000000000000CD8B458FF14
:103DC000D8B458FFC09810FFC89810FFC09810FFD3
:103DD000C09410FFC09810FFC09418FFC89818FF37
:103DE000C09410FFC09410FFC09410FFC09410FF47
:103DF000C09410FFC09010FFC09010FFC09010FF43
:103E0000B89010FFC09010FFC08C08FFB88C10FF56
:103E1000B89008FFB88C08FFB88C10FFB88C08FF6A
:103E2000B88808FFB88C08FFB88808FFB88808FF72
:103E3000B88808FFB08808FFB08408FFB08808FF82
:103E4000B08408FFB88408FFB08400FFB08400FF8E
:103E5000B08408FFB08000FFB08408FFB08000FF8E
:103E6000B08000FFA88000FFB08000FFA88008FF9E
:103E7000A88000FFB08000FFA87C00FF906800FFD2
:103E8000906800FF00000049000000240000000CC2
:103E90000000000000000000000000000000000022
:103EA00000000000000000000000000CD8B458FF23
:103EB000D8B450FFC89818FFC89818FFC09818FFCA
:103EC000C09418FFC89410FFC09410FFC09410FF56
:103ED000C89410FFC09418FFC09410FFC09010FF4A
:103EE000C09010FFC09010FFC09410FFC09010FF52
:103EF000C09010FFB89010FFC08C08FFB88C10FF66
:103F0000B88C10FFB88C10FFB88C08FFB88C10FF6D
:103F1000B88808FFB88C08FFB88808FFB88808FF81
:103F2000B08808FFB88808FFB88408FFB08408FF8D
:103F3000B08408FFB08808FFB08408FFB08408FF91
:103F4000B08408FFB08000FFB08408FFB08000FF9D
:103F5000B08000FFA88008FFB08000FFA88000FFAD
:103F6000A88000FFB08000FFA87C00FF906800FFE1
:103F7000886800FF00000045000000240000000CDD
:103F80000000000000000000000000000000000031
:103F900000000000000000000000000CD8B458FF32
:103FA000D0B458FFC09810FFC89818FFC89810FFE9
:103FB000C89818FFC89810FFC09418FFC09418FF45
:103FC000C09410FFC09410FFC09410FFC09410FF65
:103FD000C09010FFC09010FFC09010FFC09010FF65
:103FE000B89010FFC09010FFB88C08FFB88C10FF7D
:103FF000B89008FFC08C08FFB88C10FFB88C08FF81
:10400000B88808FFB88C10FFB88808FFB88808FF88
:10401000B08808FFB08808FFB88408FFB08808FFA0
:10402000B88408FFB08408FFB08408FFB08400FFA4
:10403000B08408FFB08000FFB08400FFB08008FFAC
:10404000B08008FFB08000FFB08000FFB08008FFA4
:10405000A88000FFB08000FFA87C08FF886800FFF0
:10406000906800FF00000045000000240000000CE4
:104070000000000000000000000000000000000040
:1040800000000000000000000000000CD8B458FF41
:10409000D8B458FFC09810FFC89810FFC09810FF00
:1040A000C09410FFC89818FFC09410FFC09410FF70
:1040B000C89410FFC09410FFC09410FFC09418FF64
:1040C000C09410FFC09010FFC09010FFC09010FF70
:1040D000B89010FFB89010FFC08C08FFB88C10FF8C
:1040E000B89008FFB88C10FFB88C08FFB88C08FF98
:1040F000B88808FFB88C08FFB88808FFB88808FFA0
:10410000B08808FFB88808FFB08408FFB08808FFAF
:10411000B08408FFB88408FFB08400FFB08400FFBB
:10412000B08408FFB08000FFB08408FFB08000FFBB
:10413000B08000FFA88000FFB08000FFA88008FFCB
:10414000B08000FFB08000FFA87C00FF906800FFF7
:10415000906800FF00000049000000240000000CEF
:10416000000000000000000000000000000000004F
:1041700000000000000000000000000CD8B458FF50
:10418000D8B450FFC89818FFC89818FFC09818FFF7
:10419000C09418FFC09410FFC09410FFC89410FF83
:1041A000C09410FFC09418FFC09410FFC09010FF7F
:1041B000C09010FFC09010FFC09410FFC09010FF7F
:1041C000C09010FFC09010FFC08C08FFB88C10FF8B
:1041D000C08C10FFC08C08FFB88C08FFB88C10FF93
:1041E000B88808FFB88C10FFB88808FFB88808FFA7
:1041F000B08808FFB88808FFB88808FFB08408FFB7
:10420000B08408FFB08408FFB08408FFB08408FFC2
:10421000B08408FFB08000FFB08408FFB08000FFCA
:10422000B08000FFA88008FFA88000FFB08000FFDA
:10423000A88000FFB08000FFA87C00FF906800FF0E
:10424000886800FF00000045000000240000000C0A
:10425000000000000000000000000000000000005E
:1042600000000000000000000000000CD8B458FF5F
:10427000D0B458FFC09810FFC89818FFC89810FF16
:10428000C89810FFC89810FFC09418FFC09418FF7A
:10429000C09410FFC09410FFC09410FFC09410FF92
:1042A000C09010FFC09010FFC09010FFC09010FF92
:1042B000B89010FFB89010FFB88C08FFB88C10FFB2
:1042C000B89008FFB88C10FFB88C08FFB88C08FFB6
:1042D000B88808FFB88C08FFB88808FFB88808FFBE
:1042E000B08808FFB88808FFB08408FFB08808FFCE
:1042F000B88408FFB08408FFB08408FFB08400FFD2
:10430000B08408FFB08000FFB08400FFB08008FFD9
:10431000B08008FFB08000FFB08000FFB08008FFD1
:10432000A88000FFA87C00FFA87C08FF886800FF29
:10433000906800FF00000045000000240000000C11
:10434000000000000000000000000000000000006D
:1043500000000000000000000000000CD8B458FF6E
:10436000D8B458FFC09810FFC89810FFC09810FF2D
:10437000C09418FFC89410FFC09418FFC09810FF95
:10438000C89410FFC09410FFC09410FFC09410FF99
:10439000C09410FFC09010FFC09010FFC09010FF9D
:1043A000C09010FFB89010FFC08C08FFB88C10FFB1
:1043B000B89008FFB88C08FFB88C10FFB88C10FFBD
:1043C000B88808FFB88C08FFB88808FFB88808FFCD
:1043D000B08808FFB08808FFB88408FFB08408FFE1
:1043E000B08408FFB88808FFB08400FFB08400FFE5
:1043F000B08408FFB08000FFB08408FFB08000FFE9
:10440000B08000FFA88000FFB08000FFB08008FFF0
:10441000A88000FFB08000FFA87C00FF906800FF2C
:10442000906800FF00000049000000240000000C1C
:10443000000000000000000000000000000000007C
:1044400000000000000000000000000CD8B458FF7D
:10445000D8B450FFC89818FFC89818FFC09818FF24
:10446000C09418FFC89810FFC09410FFC09410FFAC
:10447000C09410FFC09418FFC09410FFC09010FFAC
:10448000C09010FFC09010FFC09410FFC09010FFAC
:10449000B89010FFC09010FFC08C08FFB88C10FFC0
:1044A000C08C10FFC08C10FFB88C08FFB88C08FFC0
:1044B000B88808FFB88C10FFB88808FFB88808FFD4
:1044C000B88808FFB08808FFB88408FFB08808FFE4
:1044D000B08408FFB08408FFB08408FFB08408FFF0
:1044E000B08408FFB08000FFB08408FFB08000FFF8
:1044F000B08000FFA88008FFA88000FFB08000FF08
:10450000A88000FFB08000FFB07C00FF906800FF33
:10451000886800FF00000045000000240000000C37
:10452000000000000000000000000000000000008B
:1045300000000000000000000000000CD8B458FF8C
:10454000D0B458FFC09810FFC89818FFC89810FF43
:10455000C89810FFC09410FFC09418FFC89418FFAB
:10456000C09410FFC09410FFC09410FFC09410FFBF
:10457000C09010FFC09010FFC09010FFC09010FFBF
:10458000B89010FFB89010FFB88C08FFB88C10FFDF
:10459000B89008FFB88C08FFB88C08FFB88C08FFEB
:1045A000B88810FFB88C08FFB88808FFB88808FFE3
:1045B000B08808FFB88808FFB08408FFB08808FFFB
:1045C000B88408FFB08408FFB08400FFB08400FF07
:1045D000B08408FFB08000FFB08408FFB08000FF07
:1045E000B08008FFB08000FFB08000FFA88008FF07
:1045F000A88000FFB08000FFA87C08FF886800FF4B
:10460000886800FF00000045000000240000000C46
:10461000000000000000000000000000000000009A
:1046200000000000000000000000000CD8B458FF9B
:10463000D8B458FFC09810FFC89810FFC09810FF5A
:10464000C09418FFC89810FFC09418FFC09810FFBE
:10465000C89410FFC09410FFC09410FFC09010FFCA
:10466000C09410FFC09010FFC09010FFC09010FFCA
:10467000C09010FFC09010FFC08C10FFB88C08FFD6
:10468000B89008FFB88C10FFB88C08FFB88C10FFEA
:10469000B88808FFB88C08FFB88808FFB88808FFFA
:1046A000B08808FFB08808FFB88408FFB08808FF0A
:1046B000B08408FFB88408FFB08408FFB08408FF06
:1046C000B08400FFB08000FFB08408FFB08000FF1E
:1046D000B08000FFA88008FFB08000FFB08000FF1E
:1046E000A88000FFA87C00FFA87C00FF906800FF66
:1046F000906800FF00000049000000240000000C4A
:1047000000000000000000000000000000000000A9
:1047100000000000000000000000000CD8B458FFAA
:10472000D8B450FFC89818FFC89818FFC09818FF51
:10473000C09410FFC89418FFC09410FFC09410FFDD
:10474000C09410FFC09418FFC09410FFC09410FFD5
:10475000C09010FFC09010FFC09410FFC09010FFD9
:10476000B89010FFB89010FFC08C08FFB88C10FFF5
:10477000C08C10FFC08C10FFB88C10FFB88C08FFE5
:10478000B88808FFB88C08FFB88808FFB88808FF09
:10479000B08808FFB88808FFB88408FFB08808FF11
:1047A000B08408FFB08408FFB08400FFB08408FF25
:1047B000B08408FFB08000FFB08408FFB08000FF25
:1047C000B08000FFA88008FFA88000FFB08000FF35
:1047D000B08008FFB08000FFA87C00FF906800FF59
:1047E000886800FF00000045000000240000000C65
:1047F00000000000000000000000000000000000B9
:1048000000000000000000000000000CD8B458FFB9
:10481000D0B458FFC09810FFC89818FFC89810FF70
:10482000C89818FFC89810FFC09410FFC09418FFD4
:10483000C89410FFC09410FFC09410FFC09410FFE4
:10484000C09010FFC09010FFC09010FFC09010FFEC
:10485000B89010FFC09010FFB88C08FFB88C10FF04
:10486000B89008FFB88C08FFB88C08FFB88C08FF18
:10487000B88808FFB88C10FFB88808FFB88808FF10
:10488000B08808FFB88808FFB08408FFB08808FF28
:10489000B88408FFB08408FFB08400FFB88400FF2C
:1048A000B08408FFB08000FFB08408FFB08000FF34
:1048B000B08008FFB08000FFB08000FFA88000FF3C
:1048C000A88000FFB08000FFA87C00FF906808FF70
:1048D000886800FF00000045000000240000000C74
:1048E00000000000000000000000000000000000C8
:1048F00000000000000000000000000CD8B458FFC9
:10490000D8B458FFC09810FFC89810FFC09810FF87
:10491000C09410FFC09810FFC09418FFC89410FFF7
:10492000C09410FFC09418FFC09410FFC09010FFF7
:10493000C09410FFC09010FFC09010FFC09010FFF7
:10494000C09010FFB89010FFC08C08FFB88C10FF0B
:10495000B89008FFB88C08FFB88C08FFB88C10FF1F
:10496000B88808FFB88C08FFB88808FFB88810FF1F
:10497000B88808FFB08808FFB08408FFB88808FF2F
:10498000B08408FFB08408FFB08408FFB08408FF3B
:10499000B08408FFB08000FFB08408FFB08000FF43
:1049A000B08000FFA88008FFB08000FFB08000FF4B
:1049B000A88000FFA88000FFA87C00FF906800FF8F
:1049C000906800FF00000049000000240000000C77
:1049D00000000000000000000000000000000000D7
:1049E00000000000000000000000000CD8B458FFD8
:1049F000D8B450FFC89818FFC89818FFC09818FF7F
:104A0000C09418FFC89410FFC09410FFC09418FF02
:104A1000C09410FFC09410FFC09410FFC09410FF0A
:104A2000C09010FFC09010FFC09410FFC09010FF06
:104A3000B89010FFC09010FFB88C08FFB88C10FF22
:104A4000C08C10FFC08C10FFB88C10FFB88C08FF12
:104A5000B88808FFB88C08FFB88808FFB88808FF36
:104A6000B08808FFB88808FFB88408FFB08808FF3E
:104A7000B08408FFB08408FFB08400FFB08408FF52
:104A8000B08408FFB08000FFB08400FFB08000FF5A
:104A9000B08008FFA88000FFA88000FFB08008FF5A
:104AA000A88008FFB07C00FFB07C00FF886800FF92
:104AB000886800FF00000045000000240000000C92
:104AC00000000000000000000000000000000000E6
:104AD00000000000000000000000000CD8B458FFE7
:104AE000D0B458FFC09810FFC89818FFC89810FF9E
:104AF000C89818FFC89810FFC09418FFC09410FF02
:104B0000C89410FFC09410FFC09410FFC09410FF11
:104B1000C09010FFC09010FFC09010FFC09010FF19
:104B2000C09010FFB89010FFC08C08FFB88C10FF29
:104B3000B89008FFB88C08FFB88C08FFB88C10FF3D
:104B4000B88808FFB88C10FFB88808FFB88808FF3D
:104B5000B08808FFB08808FFB08408FFB08808FF5D
:104B6000B08408FFB88408FFB08400FFB08400FF61
:104B7000B08400FFB08008FFB08408FFB08000FF61
:104B8000B08000FFB08008FFB08000FFB08000FF61
:104B9000A88000FFB08000FFA87C00FF906808FF9D
:104BA000886800FF00000045000000240000000CA1
:104BB00000000000000000000000000000000000F5
:104BC00000000000000000000000000CD8B458FFF6
:104BD000D8B458FFC09810FFC89810FFC09810FFB5
:104BE000C09410FFC89418FFC09410FFC09810FF25
:104BF000C09410FFC09418FFC09410FFC09010FF25
:104C0000C09410FFC09010FFC09010FFC09010FF24
:104C1000B89010FFB89010FFC08C10FFB88C08FF40
:104C2000B89008FFB88C10FFB88C08FFB88C08FF4C
:104C3000B88808FFB88C08FFB88808FFB88808FF54
:104C4000B08808FFB88808FFB88408FFB08808FF5C
:104C5000B08408FFB88408FFB08408FFB08408FF60
:104C6000B08408FFB08000FFB08408FFB08000FF70
:104C7000B08000FFA88008FFB08000FFB08000FF78
:104C8000A88000FFA88000FFA87C00FF906800FFBC
:104C9000906800FF00000049000000240000000CA4
:104CA0000000000000000000000000000000000004
:104CB00000000000000000000000000CD8B458FF05
:104CC000D8B450FFC89818FFC89818FFC09818FFAC
:104CD000C09418FFC09810FFC09410FFC89418FF2C
:104CE000C09410FFC09410FFC09410FFC09418FF30
:104CF000C09010FFC09010FFC09410FFC09010FF34
:104D0000B89010FFC09010FFB88C08FFB88C10FF4F
:104D1000C08C10FFC08C10FFB88C08FFB88C08FF47
:104D2000B88808FFB88C08FFB88808FFB88808FF63
:104D3000B08808FFB88808FFB88408FFB08808FF6B
:104D4000B08408FFB08408FFB08400FFB08408FF7F
:104D5000B08408FFB08000FFB08400FFB08008FF7F
:104D6000B08008FFA88000FFA88000FFA88000FF97
:104D7000B08008FFB08000FFA87C00FF886800FFBB
:104D8000886800FF00000045000000240000000CBF
:104D90000000000000000000000000000000000013
:104DA00000000000000000000000000CD8B458FF14
:104DB000D0B458FFC09810FFC89818FFC89810FFCB
:104DC000C89810FFC89410FFC09418FFC09410FF3B
:104DD000C89410FFC09410FFC09410FFC09010FF43
:104DE000C09010FFC09010FFC09010FFC09010FF47
:104DF000C09010FFB89008FFC08C08FFB88C10FF5F
:104E0000B89008FFB88C08FFB88C10FFB88C08FF6A
:104E1000B88810FFB88C10FFB88808FFB88808FF62
:104E2000B88808FFB08808FFB08408FFB08808FF82
:104E3000B88408FFB08408FFB08400FFB08400FF8E
:104E4000B08408FFB08000FFB08408FFB08000FF8E
:104E5000B08000FFB08000FFB08000FFB08008FF8E
:104E6000A88000FFB08000FFA87C08FF906800FFCA
:104E7000906800FF00000045000000240000000CC6
:104E80000000000000000000000000000000000022
:104E900000000000000000000000000CD8B458FF23
:104EA000D8B458FFC09810FFC89810FFC09810FFE2
:104EB000C09418FFC89810FFC09418FFC09810FF46
:104EC000C09410FFC09418FFC09410FFC09410FF4E
:104ED000C09410FFC09010FFC09410FFC09010FF4E
:104EE000B89010FFC09010FFC08C10FFB88C10FF5E
:104EF000B89008FFB88C10FFB88C08FFB88C10FF72
:104F0000B88808FFB88C08FFB88808FFB88808FF81
:104F1000B08808FFB08808FFB88408FFB08808FF91
:104F2000B08408FFB88408FFB08408FFB08408FF8D
:104F3000B08400FFB08000FFB08408FFB08000FFA5
:104F4000B08000FFA88008FFB08000FFB08000FFA5
:104F5000A88000FFA88000FFB07C00FF906800FFE1
:104F6000886800FF00000049000000240000000CD9
:104F70000000000000000000000000000000000031
:104F800000000000000000000000000CD8B458FF32
:104F9000D8B450FFC89818FFC89818FFC09818FFD9
:104FA000C09418FFC89410FFC09410FFC09418FF5D
:104FB000C89410FFC09410FFC09410FFC09010FF61
:104FC000C09010FFC09010FFC09010FFC09010FF65
:104FD000B89010FFB89010FFB88C08FFB88C10FF85
:104FE000C08C08FFC08C08FFB88C08FFB88C08FF85
:104FF000B88808FFB88C08FFB88808FFB88810FF89
:10500000B08808FFB88808FFB88408FFB08808FF98
:10501000B08408FFB08408FFB08400FFB08408FFAC
:10502000B08408FFB08000FFB08408FFB08000FFAC
:10503000B08008FFA88000FFB08000FFA88008FFB4
:10504000A88000FFB08000FFA87C00FF886800FFF8
:10505000886800FF00000045000000240000000CEC
:105060000000000000000000000000000000000040
:1050700000000000000000000000000CD8B458FF41
:10508000D0B458FFC09810FFC89818FFC89810FFF8
:10509000C89810FFC09810FFC09418FFC89410FF64
:1050A000C09410FFC09410FFC09410FFC09418FF6C
:1050B000C09010FFC09010FFC09410FFC09010FF70
:1050C000C09010FFC09010FFC08C08FFB88C10FF7C
:1050D000B89008FFB88C10FFB88C10FFB88C08FF90
:1050E000B88808FFB88C08FFB88808FFB88808FFA0
:1050F000B08808FFB08808FFB88408FFB08808FFB0
:10510000B08408FFB08408FFB08400FFB08400FFC3
:10511000B08408FFB08000FFB08408FFB08000FFBB
:10512000B08000FFB08008FFB08000FFB08000FFBB
:10513000A88000FFB08000FFA87C08FF906800FFF7
:10514000906800FF00000045000000240000000CF3
:10515000000000000000000000000000000000004F
:1051600000000000000000000000000CD8B458FF50
:10517000D8B458FFC09810FFC89810FFC09810FF0F
:10518000C09418FFC89810FFC09418FFC09410FF77
:10519000C09410FFC09418FFC09410FFC09410FF7B
:1051A000C09410FFC09010FFC09010FFC09010FF7F
:1051B000B89010FFB89010FFC08C08FFB88C10FF9B
:1051C000B89010FFB88C08FFB88C08FFB88C10FF9F
:1051D000B88808FFB88C10FFB88808FFB88808FFA7
:1051E000B08808FFB88808FFB88408FFB08808FFB7
:1051F000B88408FFB88408FFB08408FFB08408FFB3
:10520000B08408FFB08400FFB08008FFB08000FFCA
:10521000B08000FFA88008FFB08000FFA88000FFDA
:10522000A88000FFB08000FFA87C00FF906800FF0E
:10523000886800FF00000049000000240000000C06
:10524000000000000000000000000000000000005E
:1052500000000000000000000000000CD8B458FF5F
:10526000D8B450FFC89818FFC89818FFC09818FF06
:10527000C09410FFC89418FFC09410FFC09410FF92
:10528000C89410FFC09410FFC09410FFC09010FF8E
:10529000C09010FFC09010FFC09010FFC09010FF92
:1052A000C09010FFB89010FFB88C10FFB88C08FFAA
:1052B000C08C08FFC08C10FFB88C08FFB88C08FFAA
:1052C000B88810FFB88C08FFB88808FFB88808FFB6
:1052D000B08808FFB88808FFB08408FFB08408FFD2
:1052E000B08408FFB08408FFB08400FFB08408FFDA
:1052F000B08408FFB08000FFB08400FFB08000FFE2
:10530000B08008FFA88000FFB08000FFA88000FFE9
:10531000B08008FFB08000FFA87C00FF886800FF15
:10532000906800FF00000045000000240000000C11
:10533000000000000000000000000000000000006D
:1053400000000000000000000000000CD8B458FF6E
:10535000D0B458FFC09810FFC89818FFC89810FF25
:10536000C89818FFC89810FFC09410FFC09418FF89
:10537000C09410FFC09410FFC09410FFC09410FFA1
:10538000C09010FFC09010FFC09410FFC09010FF9D
:10539000B89010FFC09010FFC08C08FFB88C10FFB1
:1053A000B89008FFB88C10FFB88C08FFB88C08FFC5
:1053B000B88808FFB88C08FFB88808FFB88808FFCD
:1053C000B88808FFB08808FFB08808FFB08808FFD9
:1053D000B08408FFB08408FFB08400FFB08400FFF1
:1053E000B08400FFB08008FFB08408FFB08000FFE9
:1053F000B08008FFB08008FFB08000FFB08000FFE1
:10540000A88008FFB08000FFA87C00FF906800FF24
:10541000906800FF00000045000000240000000C20
:10542000000000000000000000000000000000007C
:1054300000000000000000000000000CD8B458FF7D
:10544000D8B458FFC09810FFC89810FFC09810FF3C
:10545000C09410FFC09410FFC09418FFC89818FFA4
:10546000C09410FFC09418FFC09410FFC09410FFA8
:10547000C09410FFC09010FFC09010FFC09010FFAC
:10548000B89010FFB89010FFC08C08FFB88C10FFC8
:10549000B89010FFB88C08FFB88C08FFB88C10FFCC
:1054A000B88808FFB88C08FFB88808FFB88810FFD4
:1054B000B08808FFB88808FFB88408FFB08408FFE8
:1054C000B88408FFB88808FFB08408FFB08408FFDC
:1054D000B08408FFB08000FFB08008FFB08000FFFC
:1054E000B08000FFA88000FFA88000FFB08000FF10
:1054F000A88000FFA88000FFB07C00FF886800FF44
:10550000886800FF00000049000000240000000C33
:10551000000000000000000000000000000000008B
:1055200000000000000000000000000CD8B458FF8C
:10553000D8B450FFC89818FFC89818FFC09818FF33
:10554000C09418FFC89810FFC09410FFC09410FFBB
:10555000C89410FFC09410FFC09410FFC09010FFBB
:10556000C09010FFC09010FFC09010FFC09010FFBF
:10557000C09010FFC09010FFB88C08FFB88C10FFCF
:10558000C08C08FFC08C10FFB88C08FFB88C10FFCF
:10559000B88808FFB88C08FFB88808FFB88808FFEB
:1055A000B08808FFB08808FFB88408FFB08808FFFB
:1055B000B08408FFB08408FFB08400FFB08408FF07
:1055C000B08408FFB08000FFB08400FFB08000FF0F
:1055D000B08008FFB08000FFB08000FFA88008FF07
:1055E000B08000FFB08000FFA87C00FF906800FF43
:1055F000886800FF00000045000000240000000C47
:10560000000000000000000000000000000000009A
:1056100000000000000000000000000CD8B458FF9B
:10562000D0B458FFC09810FFC89818FFC89810FF52
:10563000C89818FFC89410FFC09418FFC09410FFBA
:10564000C09410FFC09410FFC09410FFC09410FFCE
:10565000C09010FFC09010FFC09410FFC09010FFCA
:10566000B89010FFB89010FFC08C10FFB88C08FFE6
:10567000B89008FFB88C10FFB88C08FFB88C08FFF2
:10568000B88808FFB88C10FFB88808FFB88808FFF2
:10569000B08808FFB88808FFB08408FFB08808FF0A
:1056A000B08408FFB08408FFB08408FFB08400FF16
:1056B000B08400FFB08408FFB08408FFB08000FF12
:1056C000B08000FFA88008FFB08000FFB08000FF1E
:1056D000A88008FFA88000FFA87C00FF906808FF52
:1056E000906800FF00000045000000240000000C4E
:1056F00000000000000000000000000000000000AA
:1057000000000000000000000000000CD8B458FFAA
:10571000D8B458FFC09810FFC89810FFC09810FF69
:10572000C09410FFC89818FFC09410FFC09818FFCD
:10573000C89410FFC09418FFC09410FFC09010FFD1
:10574000C09410FFC09010FFC09010FFC09010FFD9
:10575000B89010FFC09010FFB88C08FFB88C10FFF5
:10576000B89010FFB88C08FFB88C08FFB88C10FFF9
:10577000B88808FFB88C08FFB88808FFB88808FF09
:10578000B08808FFB88808FFB88808FFB08408FF11
:10579000B08408FFB88408FFB08400FFB08408FF1D
:1057A000B08408FFB08000FFB08008FFB08000FF29
:1057B000B08000FFA88008FFA88000FFB08000FF35
:1057C000A88000FFB07C00FFA87C00FF906800FF6D
:1057D000906800FF00000049000000240000000C59
:1057E00000000000000000000000000000000000B9
:1057F00000000000000000000000000CD8B458FFBA
:10580000D8B450FFC89818FFC89818FFC09818FF60
:10581000C09418FFC09410FFC09410FFC89410FFEC
:10582000C09410FFC09410FFC09410FFC09410FFEC
:10583000C09010FFC09010FFC09010FFC09010FFEC
:10584000C09010FFB89010FFC08C08FFB88C10FFFC
:10585000C08C08FFC08C10FFB88C08FFB88C10FFFC
:10586000B88808FFB88C08FFB88808FFB88808FF18
:10587000B88808FFB08808FFB08408FFB88808FF20
:10588000B08408FFB08408FFB08408FFB08400FF34
:10589000B08408FFB08000FFB08400FFB08008FF34
:1058A000B08408FFB08000FFB08000FFA88008FF30
:1058B000B08000FFB08000FFA87C00FF886800FF78
:1058C000886800FF00000045000000240000000C74
:1058D00000000000000000000000000000000000C8
:1058E00000000000000000000000000CD8B458FFC9
:1058F000D0B458FFC09810FFC89818FFC89810FF80
:10590000C89810FFC89810FFC09418FFC09410FFEB
:10591000C09410FFC09418FFC09410FFC09410FFF3
:10592000C09010FFC09010FFC09410FFC09010FFF7
:10593000B89010FFC09010FFC08C10FFB88C08FF0B
:10594000B89008FFB88C10FFB88C08FFB88C08FF1F
:10595000B88C08FFB88810FFB88808FFB88808FF1F
:10596000B08808FFB88808FFB08408FFB08808FF37
:10597000B88408FFB08408FFB08400FFB08408FF3B
:10598000B08408FFB08400FFB08008FFB08000FF43
:10599000B08000FFA88000FFB08000FFB08000FF53
:1059A000A88008FFA88000FFA87C00FF906800FF87
:1059B000906800FF00000045000000240000000C7B
:1059C00000000000000000000000000000000000D7
:1059D00000000000000000000000000CD8B458FFD8
:1059E000D8B458FFC09810FFC89810FFC09810FF97
:1059F000C09418FFC89810FFC09418FFC09418FFF7
:105A0000C89410FFC09410FFC09410FFC09010FF06
:105A1000C09410FFC09010FFC09010FFC09010FF06
:105A2000C09010FFB89010FFB88C08FFB88C10FF22
:105A3000B89010FFB88C08FFB88C08FFB88C10FF26
:105A4000B88808FFB88C08FFB88808FFB88808FF36
:105A5000B08808FFB08808FFB88808FFB08408FF46
:105A6000B08408FFB08408FFB08408FFB88400FF4A
:105A7000B08408FFB08000FFB08408FFB08000FF52
:105A8000B08000FFA88008FFA88000FFB08008FF5A
:105A9000A88000FFB07C00FFB07C00FF906800FF92
:105AA000886800FF00000049000000240000000C8E
:105AB00000000000000000000000000000000000E6
:105AC00000000000000000000000000CD8B458FFE7
:105AD000D8B450FFC89818FFC89818FFC09818FF8E
:105AE000C09418FFC89410FFC09410FFC09410FF1A
:105AF000C09410FFC09410FFC09410FFC09410FF1A
:105B0000C09010FFC09010FFC09010FFC09010FF19
:105B1000B89010FFB89010FFC08C08FFB88C10FF31
:105B2000C08C08FFC08C10FFB88C08FFB88C10FF29
:105B3000B88808FFB88808FFB88808FFB88808FF49
:105B4000B08808FFB88808FFB88408FFB08808FF4D
:105B5000B08408FFB08408FFB08408FFB08400FF61
:105B6000B08408FFB08000FFB08000FFB08008FF65
:105B7000B08408FFB08000FFB08000FFB08000FF5D
:105B8000A88000FFB08000FFA87C00FF886808FFA5
:105B9000886800FF00000045000000240000000CA1
:105BA00000000000000000000000000000000000F5
:105BB00000000000000000000000000CD8B458FFF6
:105BC000D0B458FFC09810FFC89818FFC89810FFAD
:105BD000C89810FFC09810FFC09418FFC89410FF19
:105BE000C09410FFC09418FFC09410FFC09410FF21
:105BF000C09010FFC09010FFC09410FFC09010FF25
:105C0000B89010FFC09010FFC08C10FFB88C08FF38
:105C1000B89010FFB88C08FFB88C08FFB88C08FF4C
:105C2000B88808FFB88C10FFB88808FFB88808FF4C
:105C3000B08808FFB88808FFB08808FFB08408FF64
:105C4000B88408FFB88808FFB08400FFB08408FF5C
:105C5000B08408FFB08000FFB08408FFB08000FF70
:105C6000B08000FFA88000FFB08000FFB08008FF78
:105C7000A88000FFA88000FFA87C00FF906800FFBC
:105C8000906800FF00000045000000240000000CA8
:105C90000000000000000000000000000000000004
:105CA00000000000000000000000000CD8B458FF05
:105CB000D8B458FFC09810FFC89810FFC09810FFC4
:105CC000C09418FFC89410FFC09418FFC09818FF24
:105CD000C89410FFC09410FFC09410FFC09010FF34
:105CE000C09410FFC09010FFC09010FFC09010FF34
:105CF000C09010FFB89010FFC08C08FFB88C10FF48
:105D0000B89008FFB88C10FFB88C10FFB88C10FF4B
:105D1000B88808FFB88C08FFB88808FFB88808FF63
:105D2000B88808FFB08808FFB08408FFB08408FF77
:105D3000B08408FFB08408FFB08408FFB08400FF7F
:105D4000B08408FFB08000FFB08408FFB08000FF7F
:105D5000B08000FFA88008FFA88000FFA88008FF8F
:105D6000B08000FFB08000FFA87C00FF906800FFBB
:105D7000886800FF00000049000000240000000CBB
